{
  "contractName": "Splitter",
  "abi": [
    {
      "constant": true,
      "inputs": [],
      "name": "owner",
      "outputs": [
        {
          "name": "",
          "type": "address"
        }
      ],
      "payable": false,
      "stateMutability": "view",
      "type": "function"
    },
    {
      "constant": true,
      "inputs": [
        {
          "name": "",
          "type": "uint256"
        }
      ],
      "name": "recipients",
      "outputs": [
        {
          "name": "holder",
          "type": "address"
        },
        {
          "name": "balance",
          "type": "uint256"
        }
      ],
      "payable": false,
      "stateMutability": "view",
      "type": "function"
    },
    {
      "inputs": [
        {
          "name": "one",
          "type": "address"
        },
        {
          "name": "two",
          "type": "address"
        }
      ],
      "payable": false,
      "stateMutability": "nonpayable",
      "type": "constructor"
    },
    {
      "anonymous": false,
      "inputs": [
        {
          "indexed": false,
          "name": "holder",
          "type": "address"
        },
        {
          "indexed": false,
          "name": "amount",
          "type": "uint256"
        }
      ],
      "name": "LogSplit",
      "type": "event"
    },
    {
      "anonymous": false,
      "inputs": [
        {
          "indexed": false,
          "name": "amount",
          "type": "uint256"
        },
        {
          "indexed": false,
          "name": "msg",
          "type": "string"
        }
      ],
      "name": "LogWeiSafed",
      "type": "event"
    },
    {
      "anonymous": false,
      "inputs": [
        {
          "indexed": false,
          "name": "holder",
          "type": "address"
        },
        {
          "indexed": false,
          "name": "amount",
          "type": "uint256"
        }
      ],
      "name": "LogWithdrawSuccess",
      "type": "event"
    },
    {
      "constant": false,
      "inputs": [],
      "name": "donate",
      "outputs": [],
      "payable": true,
      "stateMutability": "payable",
      "type": "function"
    },
    {
      "constant": false,
      "inputs": [],
      "name": "withdrawBalance",
      "outputs": [],
      "payable": false,
      "stateMutability": "nonpayable",
      "type": "function"
    }
  ],
  "bytecode": "0x608060405234801561001057600080fd5b5060405160408061081a83398101806040528101908080519060200190929190805190602001909291905050506000600181905550336000806101000a81548173ffffffffffffffffffffffffffffffffffffffff021916908373ffffffffffffffffffffffffffffffffffffffff160217905550816002600060028110151561009657fe5b6002020160000160006101000a81548173ffffffffffffffffffffffffffffffffffffffff021916908373ffffffffffffffffffffffffffffffffffffffff1602179055506000600260006002811015156100ed57fe5b6002020160010181905550806002600160028110151561010957fe5b6002020160000160006101000a81548173ffffffffffffffffffffffffffffffffffffffff021916908373ffffffffffffffffffffffffffffffffffffffff16021790555060006002600160028110151561016057fe5b6002020160010181905550505061069e8061017c6000396000f300608060405260043610610062576000357c0100000000000000000000000000000000000000000000000000000000900463ffffffff1680635fd8c710146100675780638da5cb5b1461007e578063d1bc76a1146100d5578063ed88c68e14610149575b600080fd5b34801561007357600080fd5b5061007c610153565b005b34801561008a57600080fd5b5061009361036b565b604051808273ffffffffffffffffffffffffffffffffffffffff1673ffffffffffffffffffffffffffffffffffffffff16815260200191505060405180910390f35b3480156100e157600080fd5b5061010060048036038101908080359060200190929190505050610390565b604051808373ffffffffffffffffffffffffffffffffffffffff1673ffffffffffffffffffffffffffffffffffffffff1681526020018281526020019250505060405180910390f35b6101516103d9565b005b6000806000809050600092505b600283101561035a5760028360028110151561017857fe5b6002020160000160009054906101000a900473ffffffffffffffffffffffffffffffffffffffff1673ffffffffffffffffffffffffffffffffffffffff163373ffffffffffffffffffffffffffffffffffffffff161480156101f0575060006002846002811015156101e657fe5b6002020160010154115b1561034d5760028360028110151561020457fe5b60020201600101549150600060028460028110151561021f57fe5b600202016001018190555060028360028110151561023957fe5b6002020160000160009054906101000a900473ffffffffffffffffffffffffffffffffffffffff1673ffffffffffffffffffffffffffffffffffffffff166108fc839081150290604051600060405180830381858888f193505050501580156102a6573d6000803e3d6000fd5b50600190507f286bbf2ee7c22bc982912a43edb52a1d2222bd598b25e2f5ac8322e63d3b75476002846002811015156102db57fe5b6002020160000160009054906101000a900473ffffffffffffffffffffffffffffffffffffffff1683604051808373ffffffffffffffffffffffffffffffffffffffff1673ffffffffffffffffffffffffffffffffffffffff1681526020018281526020019250505060405180910390a15b8280600101935050610160565b80151561036657600080fd5b505050565b6000809054906101000a900473ffffffffffffffffffffffffffffffffffffffff1681565b60028160028110151561039f57fe5b600202016000915090508060000160009054906101000a900473ffffffffffffffffffffffffffffffffffffffff16908060010154905082565b6000806000809054906101000a900473ffffffffffffffffffffffffffffffffffffffff1673ffffffffffffffffffffffffffffffffffffffff163373ffffffffffffffffffffffffffffffffffffffff1614151561043457fe5b60003411151561044357600080fd5b61044c34610532565b9050600091505b600282101561052e578060028360028110151561046c57fe5b60020201600101600082825401925050819055507f1f54a8a87c415d2557ff2f78f91dbfaa5b39e5adfc0895343b2f6409c03355246002836002811015156104b057fe5b6002020160000160009054906101000a900473ffffffffffffffffffffffffffffffffffffffff1682604051808373ffffffffffffffffffffffffffffffffffffffff1673ffffffffffffffffffffffffffffffffffffffff1681526020018281526020019250505060405180910390a18180600101925050610453565b5050565b600060015482019050600060028281151561054957fe5b0614156105dc5760006001819055507f3dbbed7b36284111b1e6b3383b82b7c418011539f0920d21121838dac87d13aa826040518082815260200180602001828103825260108152602001807f3a20436c656172207765692073616665000000000000000000000000000000008152506020019250505060405180910390a16002818115156105d457fe5b04905061066a565b600180819055507f3dbbed7b36284111b1e6b3383b82b7c418011539f0920d21121838dac87d13aa826040518082815260200180602001828103825260138152602001807f3a2050757420312077656920696e2073616665000000000000000000000000008152506020019250505060405180910390a16002818060019003925081151561066657fe5b0490505b8090509190505600a165627a7a72305820912abc5eabd39a51daf16bc32ff76e373974cc5ffeda6218d11c360ed06a70040029",
  "source": "pragma solidity ^0.4.23;\n\ncontract Splitter {\n    address public owner;\n    uint weiSafed;\n\n    struct RecipientStruct {\n    address holder;\n    uint balance;\n    }\n    \n    RecipientStruct[2] public recipients;\n    \n    event LogSplit (address holder, uint amount);\n    event LogWeiSafed (uint amount, string msg);\n    event LogWithdrawSuccess (address holder, uint amount);\n    \n    constructor (address one, address two) public {\n        weiSafed = 0;\n        owner = msg.sender;\n        recipients[0].holder = one;\n        recipients[0].balance = 0;\n        recipients[1].holder = two;\n        recipients[1].balance = 0;\n    }\n    \n    modifier validDonation () {\n        assert(msg.sender == owner);\n        require(msg.value > 0);\n        _;\n    }\n    \n    function splitAmount (uint amountDonated) private returns (uint amountForSplit) {\n        amountForSplit = amountDonated + weiSafed;\n        if (amountForSplit % 2 == 0) {\n            weiSafed = 0;\n            emit LogWeiSafed(amountDonated, \": Clear wei safe\");\n            amountForSplit = amountForSplit/2;\n        }\n        else {\n            weiSafed = 1;\n            emit LogWeiSafed(amountDonated, \": Put 1 wei in safe\");\n            amountForSplit = (amountForSplit--)/2;\n        }\n        return amountForSplit;\n    }\n    \n    function donate () public validDonation payable {\n        uint i;\n        uint amountToPush = splitAmount(msg.value);\n        for (i=0; i<2; i++) {\n            recipients[i].balance += amountToPush;\n            emit LogSplit (recipients[i].holder, amountToPush);\n        }\n    }\n    \n    function withdrawBalance () public {\n        uint i;\n        uint withdrawAmount;\n        bool success;\n        \n        success = false;\n        \n        for (i=0; i<2; i++) {\n            if (msg.sender == recipients[i].holder && recipients[i].balance > 0) {  // dont waste gas\n                withdrawAmount = recipients[i].balance;\n                recipients[i].balance = 0;\n                recipients[i].holder.transfer(withdrawAmount);\n                success = true;\n                emit LogWithdrawSuccess (recipients[i].holder, withdrawAmount);\n            }\n        }\n        require(success);\n    }\n}\n\n",
  "sourcePath": "/home/zweiacker/ETH-26/myProject/b9lab-splitter-project/contracts/Splitter.sol",
  "compiler": {
    "name": "solc",
    "version": "0.4.24+commit.e67f0147.Emscripten.clang"
  },
  "schemaVersion": "2.0.1",
  "updatedAt": "2018-08-11T14:43:21.667Z"
}